:020000040000FA
:10000000A80A00106D0200007502000077020000CF
:1000100000000000000000000000000000000000E0
:10002000000000000000000000000000550100007A
:100030000000000000000000F9010000590200006B
:100040007F0200007F02000000000000890A00001B
:100050007F0200007F020000000000007F0200001D
:100060007F0200007F0200007F0200007F0200008C
:100070007F0200007F0200007F0200007F0200007C
:100080007F0200007F0200007F0200007F0200006C
:100090007F0200007F0200007F02000000000000DD
:1000A0007F0200007F0200007F0200007F0200004C
:1000B0007F0200007F0200007F0200007F0200003C
:1000C0000348854600F0CAFA00480047B90C000012
:1000D000A80A0010016881F3088801688D4641680C
:1000E0000847000080F309887047EFF309807047E4
:1000F000684680F3098806480078C00703D10320CA
:1001000080F314887047022080F314887047000041
:1001100064160000064B9C46EFF305831B0605D1D1
:10012000EFF31483DB0701D000DF70476047000066
:10013000210D0000064B9C46EFF305831B0605D1FD
:10014000EFF31483DB0701D000DF70476047000046
:10015000CD0E0000EFF309808169891E097800291E
:1001600033D1A6461FC8A4467446E0471F4B06CBB2
:10017000914224D0083B002910D00CB42031012337
:100180008B71EFF30983203BCB60F0C344464D46AF
:1001900056465F46F0C301F029F80CBC1A602032C5
:1001A000D3681033F0CBA046A946B246BB4683F3D2
:1001B0000988203BF0CB9079002803D05079EFF3E9
:1001C000098318600223DB43184710B5084A1268F8
:1001D000914209D8074C89006458A6461FC8A44616
:1001E000F047EFF309840FC410BD000010000010A9
:1001F000F4020000F402000000F040FF154B06CBB3
:10020000914223D0083B0CB4203100238B71EFF3D3
:100210000983203BCB60F0C344464D4656465F46BB
:10022000F0C300F0E3FF0CBC1A602032D368103337
:10023000F0CBA046A946B246BB4683F30988203BD3
:10024000F0CB9079002801D0507918610223DB436C
:10025000184700001000001001F080F8CEE7000001
:1002600000F05CFD01F07AF8C8E700000448804720
:1002700004480047FEE7FEE7FEE7FEE7FEE7FEE78D
:10028000490A0000C100000030B50B4601460020BD
:100290002022012409E00D46D5409D4205D31D468C
:1002A0009540491B2546954040191546521E002D84
:1002B000F1DC30BDD2B201E00270401C491EFBD21D
:1002C00070470022F6E710B513460A460446194661
:1002D000FFF7F0FF204610BD0EB505490291002141
:1002E00000910A460B46019100F066F903B000BD8B
:1002F00033040000000000007047FEE7FFFFFFFF2F
:10030000F0B51FB40646002082B005464024019196
:1003100000901BE0019922460F46304600F02EF96E
:10032000049A059B801A994110D31046194622461B
:1003300000F014F9361A8F4101972246012000215E
:10034000009F00F00BF938184D4100902046641EC4
:100350000028DFDC019B00982946324607B0F0BD3B
:10036000F0B51FB488B00B9909980024484009994A
:10037000C00F490049080991C0070B990090490036
:1003800049080B9109990898A64608431CD00B9977
:100390000A98084318D0099801244000420D4800EB
:1003A000410D099824050003000B204309900B9888
:1003B0000003000B20430B9050181C4940180022EA
:1003C00001901446104605E0002001460DB0F0BD36
:1003D000032801DA034600E003239C46C11A0AAE53
:1003E0000AE05F0008ADED5B4F00F75B7D4300273F
:1003F000AA187C41491C5B1E6145F2DD410004AB3B
:100400005A522104120C0A43240C401C0828DFDB3A
:10041000019802900099704601910090059B049A02
:100420000799069800F0C8F8D0E700000DFCFFFF20
:10043000F0B50C465C4085B0E40FE40703944C0033
:100440000026640859009446490802460296224351
:1004500021D062460A431ED06200570D4A000E03A7
:100460002303550D012402462C492405781B1B0B40
:10047000360B401823432643614600901C46501A11
:10048000B44103D30098401C009002E092180098F9
:100490005B41002803DA0020014605B0F0BD0020D2
:1004A000012109050746864611E064461D46141BD6
:1004B000B54106D36546521BB341744607430C430E
:1004C000A646CD0740084908284392185B410546D7
:1004D0000D43EAD11046184313D0604619465040E8
:1004E0007140084306D06046101AB34106D201227B
:1004F000002306E000220123DB0702E00122D243B1
:100500005310009874460105381C6141029C039DFC
:100510000019694100F043F8BFE70000FD03000047
:100520004A0009030123090B1B051943094B10B5A8
:10053000520D9A4201DA002010BD064B34339A4224
:1005400003DC9A1A00F01AF810BD034951188840CC
:1005500010BD0000FF030000CDFBFFFF10B5202AF7
:1005600004DB0146203A9140002010BD9140202339
:100570009C1A0346E3401943904010BD10B5202A51
:1005800004DB0846203AD040002110BD0B46D34082
:10059000D0402024A21A91400843194610BD10B53E
:1005A000002B08DA0024401C614192185B411A4379
:1005B00001D14008400010BDF0B51FB482B005461F
:1005C0000C0003D0084600F071FA02E000F06EFA69
:1005D00020300246009021462846FFF7BFFF049BCB
:1005E000059A04460F4618431143084314D0184691
:1005F00010431BD0009840210A1A18460599FFF7AE
:10060000BDFF05460E46009A05990498FFF7A6FF20
:10061000084305D0012004E02046394607B0F0BD6C
:100620000020C11705430E432C43374300990E9811
:100630006305401A7905E40A00220C43FD0A0A30DA
:1006400002D500200146E9E70105101969410C9C1B
:100650000D9D00196941FFF7A2FFDFE7064C012558
:10066000064E05E0E36807CC2B430C3C984710345A
:10067000B442F7D3FFF728FDC8160000E8160000C3
:100680000121814003480268034B1A401143016075
:100690007047000080800440FFFFEF2510B50B4934
:1006A0000020096B8907890F08D0012908D0022989
:1006B00009D0032901D100F033F810BD044810BD62
:1006C00000F014F810BD00F057F810BD4080044051
:1006D000001BB70010B5FFF7E1FF0349896BC9B2F2
:1006E000FFF7D2FD10BD00004080044008480068BC
:1006F0008007800F05D0012805D0032805D00020F1
:10070000704704487047044800E004480068704798
:1007100040800440001BB7007C16000080160000DB
:1007200000B504488168FFF7E1FFC906C90E491CFE
:10073000484300BD0080044010B50E4840690406DF
:10074000240E14D0FFF7AAFF2146FFF79DFD094AAA
:100750004032116BC9B2FF2908D1516B0023CAB2D4
:10076000010EFF3200020132FFF7CAFD10BD00206A
:1007700010BD00008080044010B50648406AC105E5
:100780000A0FC006810E9000034A891C1058FFF71B
:100790007BFD10BD0080044084160000F8B50D46B6
:1007A0000646FFF77BFF07463146FFF76DFD010068
:1007B00000D10121114AC8B25061104C4034002DC3
:1007C00017D00E48803843680D4D0422AB43436078
:1007D00043680C4D2B401A434260FF20206338468B
:1007E000FFF752FD00023146FFF74EFDC0B26063D5
:1007F00001E000202063FFF79FFFF8BD80800440E8
:100800000420FEFFFFDF010049010818805C00287A
:1008100000D00120704710B5890043581824A34325
:10082000D2001A43425010BD020700098300064857
:1008300010B5520E18180368FF249440A34391404A
:100840001943016010BD000000C00040074A536812
:100850000121814006480843834353605068044B9C
:10086000DB431840014351607047000000800440A2
:100870000020FEFF054A916B054B1940184081434B
:100880006D20000201439163704700000082044024
:10089000FF80000010B5044600F068F90121814096
:1008A00009480268094B1A40114301600848844214
:1008B00001D1032005E00748844201D1042000E073
:1008C0000520FFF7C3FF10BD80800440FFFFEF2528
:1008D000004006400080064070B50D460446FFF714
:1008E0002BFF2901FFF7D0FC401E206270BD0000E5
:1008F00010B5084901220B685204074C23401A43E3
:100900000A6000210160FF214160044941610449FE
:10091000816110BD80800440FFFFEF25FFFF0000D4
:10092000FFFFFF0070B5364D0020696AC905090F49
:100930000B0000F0D2F81026090B0D0F111315173C
:10094000191B1D1F212325262E481AE02E4818E0CA
:100950002E4816E02E4814E02E4812E02E4810E0F3
:100960002E480EE02E480CE02E480AE02E4808E003
:100970002E4806E02E4804E02E4802E02E4800E013
:100980002E48696AC906C90E491C4900FFF77CFC5C
:100990001B4A4032116B2A4E89072A4C890F11D00D
:1009A0000023012904D002290ED003291AD10DE019
:1009B00010688007800F05D0012803D0022810D0CE
:1009C00003280FD126600DE020600BE0106880073F
:1009D000800F0DD001280BD0022802D0032801D1AE
:1009E00006E02360916B2068FFF74EFC206070BD2D
:1009F000A8681349C006C00E401C4843E4E7000045
:100A000000800440C027090090051000C05C15005C
:100A1000F0B31A00200B2000009F2400E0322900D0
:100A2000C0C62D0050973100E0673500703839009E
:100A300000093D004016400080234300C0304600BE
:100A4000001BB7000C0000100D4908680D4A104348
:100A500008600B4800224038026042600123436076
:100A600000E000BF4168C907FBD0026342634363F3
:100A700000E000BF416BC907FBD00C2181637047C8
:100A8000808004408000040070B5064C064D03E0F1
:100A90006069C0B200F008FDA0682840C007F7D127
:100AA00070BD0000004006407FFD01002021020CC7
:100AB00001D010211046020A01D01046083902095F
:100AC00001D01046091F820801D01046891E420835
:100AD00001D0881E7047081A704730B47446641EEF
:100AE0002578641CAB4200D21D46635D5B00E318B1
:100AF00030BC184702E008C8121F08C1002AFAD10A
:100B00007047002001E001C1121F002AFBD170478D
:100B100010B5002A06DA52005208D21DD308DB00B5
:100B2000102203E0D21C93089B000C22002B02D061
:100B30009C188C4201D9012010BD82188360411895
:100B400002604160C91AD018884202D8106002467B
:100B5000F9E70020106010BD05204007007900284B
:100B600000D001200121484070470000054988421B
:100B700001D10E2070470449884201D10F207047EF
:100B800010207047004006400080064010B50F4915
:100B90000D48002408602146204600F053F800214B
:100BA000012000F04FF80021022000F04BF8022253
:100BB00004210748FFF72FFE0648074A01689142C3
:100BC00001D00460446010BD00100108802300A023
:100BD0000040044004000010BEBAADDE70B505460A
:100BE00000210120FFF720FE0E210020FFF71CFE50
:100BF000104C2046FFF74EFE206804210E4A10409C
:100C00000843206028010121FFF7C8FD294620463E
:100C1000FFF762FE216808487C3001400120014353
:100C200021606168054A11406160E0600449082064
:100C3000086070BD0040064001DAFC0006030100B8
:100C400000E100E070B505240125640700280FD0FD
:100C500001281DD002280AD1002929D0012929D034
:100C60001B2200212046FFF7CFFD6840E07670BDD3
:100C7000002909D0012909D00C2200212046FFF7C4
:100C8000C3FD6840207370BD0120FBE70020F9E739
:100C9000002909D0012909D0102200212046FFF7A0
:100CA000B3FD6840207470BD0120FBE70020F9E728
:100CB0000120DBE70020D9E780B50521CC2209021D
:100CC0000648FFF7F7FAFFF713FA074F034A0449FC
:100CD0000448BC4600DF002080BD00004003001037
:100CE00001000500B514000025120000FEE7000019
:100CF00007480168074841610021816107210161BE
:100D00000548016AFF22120611430162401770472D
:100D10006016000000E000E000ED00E07047704762
:100D20000146EFF31080C207D20F72B608680028A0
:100D300001D003680B60002A00D162B67047000042
:100D400070B50D4600280FD00849094C884204D2DE
:100D500022680146104600F0C9F920684570054830
:100D600000F0C7F800F056FA70BD0000FFFF000069
:100D7000100000107808001010B50E480C494268A9
:100D80000D480B680068934204D00A60CB88421E6D
:100D90009A188A808A8880B2824208D1002008602E
:100DA000044800F0A6F80146024800F0C7F910BD5B
:100DB0002C000010780800102000001070B51B4DAA
:100DC000E868002831D0A88A401EA882002626E0C4
:100DD000A068002808D0616841606068002802D0DF
:100DE000A16881606660A66010482146183800F04E
:100DF000A5F9A08AA8826078042804D10C49E08A69
:100E000009884018A0820120607025210855E068FB
:100E1000E860E068002801D00561E6602661A88AE4
:100E2000002802D1EC68002CD2D170BD90080010CF
:100E30002000001070B504000ED00C4DA178286879
:100E40000126827891420BD900F096F92868467005
:100E5000204600F0DFF970BD054800F04AF8F8E7D9
:100E600066702146024800F069F970BD100000105C
:100E70007808001010B50321FFF762FF10BD0000D5
:100E800010B50446008B084320836278618B062AE4
:100E900015D0052A12D1084210D00A4602406283BA
:100EA00088432083204600F071F901206070022100
:100EB000252001552146044800F040F910BD0A469E
:100EC0008243EDD010BD000078080010814202D3AB
:100ED00042688A4201D801207047EFF31082D2079E
:100EE000D20F72B603680B60016000D162B60020B9
:100EF00070470146406842684A600B780022022B26
:100F000005D0012B03D0032B01D04260704743680A
:100F1000002B01D0996042608260704770B5044632
:100F2000154600202070012262702346A1702033F4
:100F300019716060A060E06020612062A082E082A0
:100F40002083608358719871208D002803D1044854
:100F5000FFF7E6FE20632946204600F00FF870BD3B
:100F6000C801001003480021016003490988C180BD
:100F7000704700002C0000105C16000030B5028D98
:100F8000920803D10E4A12881204920C036B92004D
:100F90009A18530700D5121F01231B06403AD3634A
:100FA000002391631C469D005B1C54510E2BFAD309
:100FB000C3691362C2624163006B0249016030BDC4
:100FC00058160000A52E5AE2F8B5044640680026DF
:100FD0000F46002805D06178022918D0A089002882
:100FE00033D0A089E189884242D22089800000194B
:100FF000076172B6A089401CA08162B62089401C9E
:1010000080B22081E189884200D12681F8BD406804
:10101000002800D0012060702046FFF76AFF0546D7
:10102000203046712189E86989000919086172B682
:10103000A089401CA08162B62089401C80B220811A
:10104000E18988420AD1268108E02046FFF751FF56
:101050000546C069042107602520415501206870BC
:10106000284600F093F82946034800F067F8F8BDD9
:101070000320FFF742F9F8BD7808001070B5184852
:10108000012102685170006800F076F8154C65780F
:1010900013E0E800011948680278002A17D0012AF5
:1010A0001AD000F089F8E0786D1C854200D1002547
:1010B00072B6A078401EA07062B6A0780028E8D171
:1010C00065700948FFF715FF00F0A4F870BD0989A5
:1010D00089B2FFF7D5FEE6E78968FFF775FFE2E71B
:1010E00010000010A00200107808001010B5124A7D
:1010F000D368002B17D013469B8A04E0002C12D033
:101100002246A48AE318D4688B42F7D3C460D06027
:101110000261C468002C00D02061591A8182908A33
:10112000401A908210BD0024C460D060C91A0261C8
:101130009182848210BD00009008001030B50278C2
:101140000023022A03D0012A01D0032A00D101235F
:101150008C7800E010464268002A02D09578A542BB
:10116000F8D24A604160002B04D0002A00D0916080
:10117000886030BD0020FBE703494A6842600022D6
:1011800082604860704700007808001010B501695F
:1011900000290FD0C268CA60C3680022002B07D0A4
:1011A0008B8A848A1B198B82C3681961C26000E034
:1011B0008A82026110BD000010B5416800290ED07E
:1011C000FFF797FE0446FFF7E1FF0120607003215F
:1011D0002520015521460448FFF7B0FF10BD418886
:1011E000491C418010BD00007808001010B5074868
:1011F0000068C16A006B814203D3006804498842D9
:1012000002D00120FFF779F810BD00001000001097
:10121000A52E5AE202494860022141707047000041
:1012200010000010F7B5164600200446374A38492A
:1012300002E08300D450401C0B889842F9D3354813
:10124000382201883448FFF763FC344801210088C4
:10125000C90780B24218324801683248FFF758FC8B
:1012600031480822018831480068FFF751FC304FAF
:10127000FF25FD703C852F4A00213846FFF74EFEC2
:101280002D480421017044602C480170C460046141
:101290008482F86A2030FEF725FF29482A49076032
:1012A000022078702748047044700978C170FFF7F5
:1012B00059FE2648016A2A0411430162C169026A83
:1012C0005202920E92061143C161FFF711FD2049AF
:1012D0000028086012DB82081E49920051180A6833
:1012E0008307DB0E9D402A430A60C206D20E01210D
:1012F00091404011184A8000801801600023324656
:101300000199009800F068F8FEBD00002403001069
:10131000541600007016000034000010581600002B
:1013200074160000C80100107A16000000000010BA
:1013300040080010ED0C0000780800109008001024
:1013400010000010A00200107816000000ED00E070
:101350001C00001000E400E000E100E010B50B48C4
:101360000121026851700068FFF706FFFFF704FDD6
:1013700007480168491C0160FFF720FD00F00CF8E8
:101380000448FFF7B6FDFFF745FF10BD1000001041
:10139000200000107808001070B50D4C206800285F
:1013A00015D0A0880B4E401EA0800AE0E888FFF709
:1013B000B6FCA888A0802868206029463068FFF71E
:1013C00085FDA088002802D12568002DEED170BDD2
:1013D0002400001000000010FFB5080681B01E4672
:1013E00017460C46000E00D14C1C1648FFF798FC1F
:1013F000050025D02002000C2F632885EE61E1B2A4
:101400002846019AFFF78AFD01240F480F4906E09C
:10141000A2001218803AD26F002A04D0641C0A88F5
:101420009442F5D90024A10008188038C567EC70F3
:101430002846FFF7FFFC064800682030447120462C
:1014400005B0F0BD34000010240300105416000055
:101450001000001030B5104B01215A680F48002AC7
:1014600009DA0F4C0522226119704168890E11407A
:10147000997049060EE0D506ED0E0C46AC405211AF
:10148000084D92005219146019704168C900C90FC3
:101490009970C906416030BD1800001000ED00E0F1
:1014A00000E000E080E100E010B502210120FFF73C
:1014B000C9FB10BD0EB5FFF735FAFFF70BF9FEF7C4
:1014C0000BFF0022574BFEF74BFF0022564BFEF757
:1014D000AFFFFFF725F85549401E48611220FFF77E
:1014E000CFF80620FFF7CCF80720FFF7C9F85048DF
:1014F000012102684902D201D20911430160402052
:10150000FFF7B8F94B493F204862FFF735F98008EB
:101510000124A407009020680290400703D54649A3
:101520004868401C48602046FFF7E2F92168222005
:101530008906890E0143216000980A2148436060B2
:10154000216801208906890E01432160AA20A0603C
:101550005525A560FFF71AFB384F6420BC4600DF15
:10156000FFF7FAFA002812D1012676033068401CF2
:101570000DD000203249C043086032490860324F24
:10158000BC4600DF314930468E60FEF7A3FDE12006
:101590004002FFF723FB2748803001682C4A914323
:1015A0000160AA260198401C0190A660A560012157
:1015B0000020FFF747FB214F1E20BC4600DF002123
:1015C0000846FFF73FFB0A20BC4600DF0121002050
:1015D000FFF738FB0A20BC4600DF00210846FFF772
:1015E00031FB0A20BC4600DF01210020FFF72AFB67
:1015F0000A20BC4600DF00210846FFF723FB0A2033
:10160000BC4600DF01210020FFF71CFB0A20BC467E
:1016100000DF00210846FFF715FB6420BC4600DF11
:10162000C0E700000088C34080842E4100E000E055
:10163000C0C100400080044000000240750E000060
:1016400080E100E080E200E05514000000ED00E0E1
:10165000800010DA07000000C80007010500010043
:10166000DF930400010000001027000000000000CC
:1016700094010000D800000010000000001BB7001B
:101680000000000000000000C027090090051000C5
:10169000C05C1500F0B31A00200B2000009F24004E
:1016A000E0322900C0C62D0050973100E0673500B8
:1016B0007038390000093D00401640008023430087
:1016C000C03046004B000400E81600000000001087
:1016D00034000000F40A00001C1700003400001061
:1016E000740A0000020B000000000000000000006F
:1016F0000000000040420F00000000000000000059
:1017000000000000000000000000000000000000D9
:0C171000000000000000000000000000CD
:04000005000000C136
:00000001FF
